:02000000F028E6
:10000800FF00030E8301AC000A08AD008A017008E6
:10001800A0008B1C47282108003A031D1D28063024
:100028008100A201A301BF30831681058312A10AB2
:1000380045282208F0002308F100FA30F400F50101
:10004800C52006300102F200F301031CF303720815
:10005800F00773080318013EF1077008A40071083F
:10006800A5001130F4000030F500C520E830F40098
:100078000330F500A8207008A90083160117831221
:10008800A101FD308B050B1D532806308100A20A03
:100098000319A30AA70A0319A80AFB308B0520082D
:1000A800F0002D088A002C0E8300FF0E7F0E090039
:0E00B800831203132B088A002A088200080016
:1000C600831203130714A60AA60AA60AA60AA60AF4
:1000D600A60AA60AA60AA60AA60AA60AA60AA60A9A
:1000E600A60AA60AA60AA60AA60AA60AA60AFE300C
:0400F6008705080072
:1000FA000030831203138805881663200A308800AB
:02010A000800EB
:10010C000630831203138100A701A801AE0DAF0DB9
:10011C002E10AE0DAF0D2E102F082802031D98289F
:0C012C002E08270203189B2892280800C8
:100138005C208A110A128000840AAA0A0319AB0AF1
:08014800F003031D9C280800D0
:1001500083120313F801F9011030FC00710DF80D42
:10016000F90D7408F8027508031C750FF9020318DD
:10017000C0287408F80775080318750FF9070310ED
:0A018000F00DF10DFC0BAE28080095
:10018A0083120313FB01FA01F9018030F800F10C24
:10019A00F00C031CD9287408F90775080318750FA1
:1001AA00FA070318FB0A0310F01FE1287408FA077C
:1001BA0075080318750FFB07FB0CFA0CF90CF80C01
:1001CA00031CCC287B08F3007A08F2007908F100B6
:0601DA007808F0000800A7
:1001E00083120313A101A201A301A401A501A60189
:1001F000A701A801A901FF30831686008701831299
:1002000087018316880183128801B0308B0040304B
:10021000831681000A3083128800F430AE0001306A
:10022000AF0086207D200A30290203183829880172
:10023000FA30AE00AF018620881C3029081D28291D
:1002400005308800F430AE000130AF0086202F2941
:1002500008308800F430AE000130AF008620372926
:1002600002308800F430AE000130AF0086203A2919
:080270000A30880012293B2925
:02400E004A2F37
:00000001FF
